{
  "address": "0x6A8A356C2Fdb6d4004e785ADd08Af7e085a1432a",
  "abi": [
    {
      "inputs": [],
      "stateMutability": "nonpayable",
      "type": "constructor"
    },
    {
      "inputs": [
        {
          "internalType": "address",
          "name": "target",
          "type": "address"
        }
      ],
      "name": "AddressEmptyCode",
      "type": "error"
    },
    {
      "inputs": [
        {
          "internalType": "address",
          "name": "account",
          "type": "address"
        }
      ],
      "name": "AddressInsufficientBalance",
      "type": "error"
    },
    {
      "inputs": [],
      "name": "DUPLICATE_RECIPIENT",
      "type": "error"
    },
    {
      "inputs": [],
      "name": "FailedInnerCall",
      "type": "error"
    },
    {
      "inputs": [],
      "name": "INSUFFICIENT_RECIPIENT_COUNT",
      "type": "error"
    },
    {
      "inputs": [],
      "name": "INSUFFICIENT_SPLIT_AMOUNT",
      "type": "error"
    },
    {
      "inputs": [],
      "name": "INVALID_INPUT",
      "type": "error"
    },
    {
      "inputs": [],
      "name": "INVALID_RECIPIENT",
      "type": "error"
    },
    {
      "inputs": [],
      "name": "ONLY_OWNER",
      "type": "error"
    },
    {
      "inputs": [],
      "name": "ReentrancyGuardReentrantCall",
      "type": "error"
    },
    {
      "inputs": [
        {
          "internalType": "address",
          "name": "token",
          "type": "address"
        }
      ],
      "name": "SafeERC20FailedOperation",
      "type": "error"
    },
    {
      "inputs": [],
      "name": "TRANSFER_FAILED",
      "type": "error"
    },
    {
      "anonymous": false,
      "inputs": [
        {
          "indexed": true,
          "internalType": "address",
          "name": "sender",
          "type": "address"
        },
        {
          "indexed": false,
          "internalType": "address payable[]",
          "name": "recipients",
          "type": "address[]"
        },
        {
          "indexed": false,
          "internalType": "uint256[]",
          "name": "amounts",
          "type": "uint256[]"
        },
        {
          "indexed": false,
          "internalType": "contract IERC20",
          "name": "token",
          "type": "address"
        }
      ],
      "name": "Erc20Split",
      "type": "event"
    },
    {
      "anonymous": false,
      "inputs": [
        {
          "indexed": true,
          "internalType": "address",
          "name": "sender",
          "type": "address"
        },
        {
          "indexed": false,
          "internalType": "uint256",
          "name": "totalAmount",
          "type": "uint256"
        },
        {
          "indexed": false,
          "internalType": "address payable[]",
          "name": "recipients",
          "type": "address[]"
        },
        {
          "indexed": false,
          "internalType": "contract IERC20",
          "name": "token",
          "type": "address"
        }
      ],
      "name": "Erc20SplitEqual",
      "type": "event"
    },
    {
      "anonymous": false,
      "inputs": [
        {
          "indexed": true,
          "internalType": "address",
          "name": "sender",
          "type": "address"
        },
        {
          "indexed": false,
          "internalType": "uint256",
          "name": "totalAmount",
          "type": "uint256"
        },
        {
          "indexed": false,
          "internalType": "address payable[]",
          "name": "recipients",
          "type": "address[]"
        },
        {
          "indexed": false,
          "internalType": "uint256[]",
          "name": "amounts",
          "type": "uint256[]"
        }
      ],
      "name": "EthSplit",
      "type": "event"
    },
    {
      "anonymous": false,
      "inputs": [
        {
          "indexed": true,
          "internalType": "address",
          "name": "sender",
          "type": "address"
        },
        {
          "indexed": false,
          "internalType": "uint256",
          "name": "totalAmount",
          "type": "uint256"
        },
        {
          "indexed": false,
          "internalType": "address payable[]",
          "name": "recipients",
          "type": "address[]"
        }
      ],
      "name": "EthSplitEqual",
      "type": "event"
    },
    {
      "inputs": [
        {
          "internalType": "contract IERC20",
          "name": "token",
          "type": "address"
        },
        {
          "internalType": "address payable[]",
          "name": "recipients",
          "type": "address[]"
        },
        {
          "internalType": "uint256[]",
          "name": "amounts",
          "type": "uint256[]"
        }
      ],
      "name": "splitERC20",
      "outputs": [],
      "stateMutability": "nonpayable",
      "type": "function"
    },
    {
      "inputs": [
        {
          "internalType": "address payable[]",
          "name": "recipients",
          "type": "address[]"
        },
        {
          "internalType": "uint256[]",
          "name": "amounts",
          "type": "uint256[]"
        }
      ],
      "name": "splitETH",
      "outputs": [],
      "stateMutability": "payable",
      "type": "function"
    },
    {
      "inputs": [
        {
          "internalType": "contract IERC20",
          "name": "token",
          "type": "address"
        },
        {
          "internalType": "address payable[]",
          "name": "recipients",
          "type": "address[]"
        },
        {
          "internalType": "uint256",
          "name": "totalAmount",
          "type": "uint256"
        }
      ],
      "name": "splitEqualERC20",
      "outputs": [],
      "stateMutability": "nonpayable",
      "type": "function"
    },
    {
      "inputs": [
        {
          "internalType": "address payable[]",
          "name": "recipients",
          "type": "address[]"
        }
      ],
      "name": "splitEqualETH",
      "outputs": [],
      "stateMutability": "payable",
      "type": "function"
    },
    {
      "inputs": [
        {
          "internalType": "contract IERC20",
          "name": "token",
          "type": "address"
        }
      ],
      "name": "withdraw",
      "outputs": [],
      "stateMutability": "nonpayable",
      "type": "function"
    },
    {
      "stateMutability": "payable",
      "type": "receive"
    }
  ],
  "transactionHash": "0xf9226359bea0fec3d9b8d520db9e303688f4eb93d90886f39593cee7c0b9312f",
  "args": [],
  "numDeployments": 1,
  "solcInputHash": "79141e6a18da172dc4733ef7cd5e2b49",
  "bytecode": "0x60a060405234801561001057600080fd5b5060016000553360805260805161145261004360003960008181610380015281816103d0015261048b01526114526000f3fe60806040526004361061004e5760003560e01c80630b1034b11461005a57806351cff8d91461006f5780636f949ad01461008f57806382a86d9e146100a2578063a6471e14146100c257600080fd5b3661005557005b600080fd5b61006d61006836600461100a565b6100e2565b005b34801561007b57600080fd5b5061006d61008a366004611061565b610375565b61006d61009d36600461107e565b610569565b3480156100ae57600080fd5b5061006d6100bd3660046110ea565b61071f565b3480156100ce57600080fd5b5061006d6100dd36600461116d565b61085b565b6100ea610a7c565b81818060005b818110156101b35760006101058260016111df565b90505b828110156101a057848482818110610122576101226111f2565b90506020020160208101906101379190611061565b6001600160a01b0316858584818110610152576101526111f2565b90506020020160208101906101679190611061565b6001600160a01b03160361018e57604051632f119e0960e11b815260040160405180910390fd5b8061019881611208565b915050610108565b50806101ab81611208565b9150506100f0565b50348460006101c28284611237565b905060006101d0838561124b565b905060198311806101e15750600283105b156101ff5760405163393f616160e01b815260040160405180910390fd5b60005b8381101561031a5760008a8a8381811061021e5761021e6111f2565b90506020020160208101906102339190611061565b6001600160a01b03160361025a5760405163290802d360e11b815260040160405180910390fd5b8260008290036102715761026e83826111df565b90505b60008b8b84818110610285576102856111f2565b905060200201602081019061029a9190611061565b6001600160a01b031682614e2090604051600060405180830381858888f193505050503d80600081146102e9576040519150601f19603f3d011682016040523d82523d6000602084013e6102ee565b606091505b505090508061031057604051631fa55c0760e11b815260040160405180910390fd5b5050600101610202565b50336001600160a01b03167f87f1eb586b0382990a8813b3bf1c9381de2d895114d7d2fc3277ccc737bcefcd348b8b604051610358939291906112a8565b60405180910390a2505050505050506103716001600055565b5050565b336001600160a01b037f000000000000000000000000000000000000000000000000000000000000000016146103be5760405163d238ed5960e01b815260040160405180910390fd5b6001600160a01b0381166104655760007f00000000000000000000000000000000000000000000000000000000000000006001600160a01b031647614e2090604051600060405180830381858888f193505050503d806000811461043e576040519150601f19603f3d011682016040523d82523d6000602084013e610443565b606091505b505090508061037157604051631fa55c0760e11b815260040160405180910390fd5b6040516370a0823160e01b81523060048201526001600160a01b0382169063a9059cbb907f00000000000000000000000000000000000000000000000000000000000000009083906370a0823190602401602060405180830381865afa1580156104d3573d6000803e3d6000fd5b505050506040513d601f19601f820116820180604052508101906104f791906112cb565b6040516001600160e01b031960e085901b1681526001600160a01b03909216600483015260248201526044016020604051808303816000875af1158015610542573d6000803e3d6000fd5b505050506040513d601f19601f8201168201806040525081019061037191906112e4565b50565b610571610a7c565b83838060005b8181101561063a57600061058c8260016111df565b90505b82811015610627578484828181106105a9576105a96111f2565b90506020020160208101906105be9190611061565b6001600160a01b03168585848181106105d9576105d96111f2565b90506020020160208101906105ee9190611061565b6001600160a01b03160361061557604051632f119e0960e11b815260040160405180910390fd5b8061061f81611208565b91505061058f565b508061063281611208565b915050610577565b50600061064a8888888834610aa6565b9050336001600160a01b03167fce4a1ba06513226cf23618c48cd2a2d391b00be6079ac669924fa0218cca152b348a8a8a8a60405161068d959493929190611338565b60405180910390a2801561070b576040516000903390614e2090849084818181858888f193505050503d80600081146106e2576040519150601f19603f3d011682016040523d82523d6000602084013e6106e7565b606091505b505090508061070957604051631fa55c0760e11b815260040160405180910390fd5b505b505050506107196001600055565b50505050565b610727610a7c565b83838060005b818110156107f05760006107428260016111df565b90505b828110156107dd5784848281811061075f5761075f6111f2565b90506020020160208101906107749190611061565b6001600160a01b031685858481811061078f5761078f6111f2565b90506020020160208101906107a49190611061565b6001600160a01b0316036107cb57604051632f119e0960e11b815260040160405180910390fd5b806107d581611208565b915050610745565b50806107e881611208565b91505061072d565b506107fe8888888888610c88565b336001600160a01b03167f4114dcfe2aaaf6aa4f0734763cbe121058528a2e296173d8a63900e13966e064888888888d60405161083f959493929190611365565b60405180910390a25050506108546001600055565b5050505050565b610863610a7c565b82828060005b8181101561092c57600061087e8260016111df565b90505b828110156109195784848281811061089b5761089b6111f2565b90506020020160208101906108b09190611061565b6001600160a01b03168585848181106108cb576108cb6111f2565b90506020020160208101906108e09190611061565b6001600160a01b03160361090757604051632f119e0960e11b815260040160405180910390fd5b8061091181611208565b915050610881565b508061092481611208565b915050610869565b5084601981118061093d5750600281105b1561095b5760405163393f616160e01b815260040160405180910390fd5b60006109678287611237565b90506000610975838861124b565b905060005b83811015610a245760008a8a83818110610996576109966111f2565b90506020020160208101906109ab9190611061565b6001600160a01b0316036109d25760405163290802d360e11b815260040160405180910390fd5b8260008290036109e9576109e683826111df565b90505b610a1b8c338d8d86818110610a0057610a006111f2565b9050602002016020810190610a159190611061565b84610dc5565b5060010161097a565b50336001600160a01b03167f76a95c273288c88de8fb190aa9eb3e12866d73a32acf083fa4642a89b7fa523d888b8b8e604051610a6494939291906113a7565b60405180910390a25050505050506107196001600055565b600260005403610a9f57604051633ee5aeb560e01b815260040160405180910390fd5b6002600055565b600084838114610ac95760405163b68600c760e01b815260040160405180910390fd5b6019811180610ad85750600281105b15610af65760405163393f616160e01b815260040160405180910390fd5b6000805b82811015610c71576000898983818110610b1657610b166111f2565b9050602002016020810190610b2b9190611061565b6001600160a01b031603610b525760405163290802d360e11b815260040160405180910390fd5b868682818110610b6457610b646111f2565b90506020020135600003610b8b57604051631161496d60e01b815260040160405180910390fd5b868682818110610b9d57610b9d6111f2565b9050602002013582610baf91906111df565b91506000898983818110610bc557610bc56111f2565b9050602002016020810190610bda9190611061565b6001600160a01b0316888884818110610bf557610bf56111f2565b90506020020135614e2090604051600060405180830381858888f193505050503d8060008114610c41576040519150601f19603f3d011682016040523d82523d6000602084013e610c46565b606091505b5050905080610c6857604051631fa55c0760e11b815260040160405180910390fd5b50600101610afa565b50610c7c81856113da565b98975050505050505050565b82818114610ca95760405163b68600c760e01b815260040160405180910390fd5b6019811180610cb85750600281105b15610cd65760405163393f616160e01b815260040160405180910390fd5b60005b81811015610dbc576000868683818110610cf557610cf56111f2565b9050602002016020810190610d0a9190611061565b6001600160a01b031603610d315760405163290802d360e11b815260040160405180910390fd5b838382818110610d4357610d436111f2565b90506020020135600003610d6a57604051631161496d60e01b815260040160405180910390fd5b610db48733888885818110610d8157610d816111f2565b9050602002016020810190610d969190611061565b878786818110610da857610da86111f2565b90506020020135610dc5565b600101610cd9565b50505050505050565b604080516001600160a01b038581166024830152848116604483015260648083018590528351808403909101815260849092019092526020810180516001600160e01b03166323b872dd60e01b17905261071991869190600090610e2b90841683610e83565b90508051600014158015610e50575080806020019051810190610e4e91906112e4565b155b15610e7e57604051635274afe760e01b81526001600160a01b03841660048201526024015b60405180910390fd5b505050565b6060610e9183836000610e9a565b90505b92915050565b606081471015610ebf5760405163cd78605960e01b8152306004820152602401610e75565b600080856001600160a01b03168486604051610edb91906113ed565b60006040518083038185875af1925050503d8060008114610f18576040519150601f19603f3d011682016040523d82523d6000602084013e610f1d565b606091505b5091509150610f2d868383610f39565b925050505b9392505050565b606082610f4e57610f4982610f95565b610f32565b8151158015610f6557506001600160a01b0384163b155b15610f8e57604051639996b31560e01b81526001600160a01b0385166004820152602401610e75565b5080610f32565b805115610fa55780518082602001fd5b604051630a12f52160e11b815260040160405180910390fd5b60008083601f840112610fd057600080fd5b50813567ffffffffffffffff811115610fe857600080fd5b6020830191508360208260051b850101111561100357600080fd5b9250929050565b6000806020838503121561101d57600080fd5b823567ffffffffffffffff81111561103457600080fd5b61104085828601610fbe565b90969095509350505050565b6001600160a01b038116811461056657600080fd5b60006020828403121561107357600080fd5b8135610f328161104c565b6000806000806040858703121561109457600080fd5b843567ffffffffffffffff808211156110ac57600080fd5b6110b888838901610fbe565b909650945060208701359150808211156110d157600080fd5b506110de87828801610fbe565b95989497509550505050565b60008060008060006060868803121561110257600080fd5b853561110d8161104c565b9450602086013567ffffffffffffffff8082111561112a57600080fd5b61113689838a01610fbe565b9096509450604088013591508082111561114f57600080fd5b5061115c88828901610fbe565b969995985093965092949392505050565b6000806000806060858703121561118357600080fd5b843561118e8161104c565b9350602085013567ffffffffffffffff8111156111aa57600080fd5b6111b687828801610fbe565b9598909750949560400135949350505050565b634e487b7160e01b600052601160045260246000fd5b80820180821115610e9457610e946111c9565b634e487b7160e01b600052603260045260246000fd5b60006001820161121a5761121a6111c9565b5060010190565b634e487b7160e01b600052601260045260246000fd5b60008261124657611246611221565b500490565b60008261125a5761125a611221565b500690565b8183526000602080850194508260005b8581101561129d5781356112828161104c565b6001600160a01b03168752958201959082019060010161126f565b509495945050505050565b8381526040602082015260006112c260408301848661125f565b95945050505050565b6000602082840312156112dd57600080fd5b5051919050565b6000602082840312156112f657600080fd5b81518015158114610f3257600080fd5b81835260006001600160fb1b0383111561131f57600080fd5b8260051b80836020870137939093016020019392505050565b85815260606020820152600061135260608301868861125f565b8281036040840152610c7c818587611306565b60608152600061137960608301878961125f565b828103602084015261138c818688611306565b91505060018060a01b03831660408301529695505050505050565b8481526060602082015260006113c160608301858761125f565b905060018060a01b038316604083015295945050505050565b81810381811115610e9457610e946111c9565b6000825160005b8181101561140e57602081860181015185830152016113f4565b50600092019182525091905056fea2646970667358221220a4c708dfeadea6b0e4caf3c73ae7566daf8851ba0e7c6fad00a21a169ad3604764736f6c63430008140033",
  "devdoc": {
    "details": "This is intended for research and development purposes only. Use this contract at your own risk and discretion.",
    "errors": {
      "AddressEmptyCode(address)": [
        {
          "details": "There's no code at `target` (it is not a contract)."
        }
      ],
      "AddressInsufficientBalance(address)": [
        {
          "details": "The ETH balance of the account is not enough to perform the operation."
        }
      ],
      "FailedInnerCall()": [
        {
          "details": "A call to an address target failed. The target may have reverted."
        }
      ],
      "ReentrancyGuardReentrantCall()": [
        {
          "details": "Unauthorized reentrant call."
        }
      ],
      "SafeERC20FailedOperation(address)": [
        {
          "details": "An operation with an ERC20 token failed."
        }
      ]
    },
    "kind": "dev",
    "methods": {
      "splitERC20(address,address[],uint256[])": {
        "params": {
          "amounts": "The amounts each recipient shall receive",
          "recipients": "The noble recipients of the ERC20 tokens",
          "token": "The token of friendship to be shared amongst the recipients"
        }
      },
      "splitETH(address[],uint256[])": {
        "params": {
          "amounts": "The amounts each recipient shall receive",
          "recipients": "The noble recipients of the ETH"
        }
      },
      "splitEqualERC20(address,address[],uint256)": {
        "params": {
          "recipients": "The noble recipients of the ERC20 tokens",
          "token": "The token of friendship to be shared amongst the recipients",
          "totalAmount": "The total amount to be shared"
        }
      },
      "splitEqualETH(address[])": {
        "details": "The contract gracefully adds any leftover dust to the amount to be received by the first recipient in the input array.",
        "params": {
          "recipients": "The noble recipients of the ETH"
        }
      },
      "withdraw(address)": {
        "params": {
          "token": "The address of the ERC20 token, or 0 for ETH"
        }
      }
    },
    "title": "ETHSplitter",
    "version": 1
  },
  "userdoc": {
    "kind": "user",
    "methods": {
      "constructor": {
        "notice": "The constructor sets the owner of the contract"
      },
      "splitERC20(address,address[],uint256[])": {
        "notice": "Splits the ERC20 tokens amongst the given recipients, according to the specified amounts"
      },
      "splitETH(address[],uint256[])": {
        "notice": "Splits the ETH amongst the given recipients, according to the specified amounts"
      },
      "splitEqualERC20(address,address[],uint256)": {
        "notice": "Splits the ERC20 tokens equally amongst the given recipients"
      },
      "splitEqualETH(address[])": {
        "notice": "Splits the ETH equally amongst the given recipients"
      },
      "withdraw(address)": {
        "notice": "Withdraws the remaining ETH or ERC20 tokens to the owner's address"
      }
    },
    "notice": "A smart contract to split ETH or ERC20 tokens between multiple recipients.",
    "version": 1
  },
  "storageLayout": {
    "storage": [
      {
        "astId": 1375,
        "contract": "contracts/Splitter.sol:ETHSplitter",
        "label": "_status",
        "offset": 0,
        "slot": "0",
        "type": "t_uint256"
      }
    ],
    "types": {
      "t_uint256": {
        "encoding": "inplace",
        "label": "uint256",
        "numberOfBytes": "32"
      }
    }
  }
}